{"contracts/ChainPack.sol":{"ChainPack":{"abi":[{"anonymous":false,"inputs":[{"indexed":true,"internalType":"string","name":"name","type":"string"},{"indexed":false,"internalType":"string","name":"version","type":"string"},{"indexed":false,"internalType":"string","name":"ipfsHash","type":"string"},{"indexed":true,"internalType":"address","name":"author","type":"address"},{"indexed":false,"internalType":"uint256","name":"timestamp","type":"uint256"}],"name":"PackagePublished","type":"event"},{"inputs":[{"internalType":"string","name":"_name","type":"string"},{"internalType":"uint256","name":"index","type":"uint256"}],"name":"getPackage","outputs":[{"internalType":"string","name":"name","type":"string"},{"internalType":"string","name":"version","type":"string"},{"internalType":"string","name":"ipfsHash","type":"string"},{"internalType":"address","name":"author","type":"address"},{"internalType":"uint256","name":"timestamp","type":"uint256"}],"stateMutability":"view","type":"function"},{"inputs":[{"internalType":"string","name":"_name","type":"string"}],"name":"getPackageCount","outputs":[{"internalType":"uint256","name":"","type":"uint256"}],"stateMutability":"view","type":"function"},{"inputs":[{"internalType":"string","name":"_name","type":"string"},{"internalType":"string","name":"_version","type":"string"},{"internalType":"string","name":"_ipfsHash","type":"string"}],"name":"publishPackage","outputs":[],"stateMutability":"nonpayable","type":"function"}],"devdoc":{"kind":"dev","methods":{},"version":1},"evm":{"bytecode":{"linkReferences":{},"object":"6080604052348015600f57600080fd5b50610d8c8061001f6000396000f3fe608060405234801561001057600080fd5b50600436106100415760003560e01c80631b11f7981461004657806370a92a9a1461007657806381985222146100aa575b600080fd5b610060600480360381019061005b9190610671565b6100c6565b60405161006d91906106d3565b60405180910390f35b610090600480360381019061008b919061071a565b6100f0565b6040516100a1959493929190610836565b60405180910390f35b6100c460048036038101906100bf919061089e565b61038b565b005b600080826040516100d79190610981565b9081526020016040518091039020805490509050919050565b60608060606000806000876040516101089190610981565b908152602001604051809103902080549050861061015b576040517f08c379a0000000000000000000000000000000000000000000000000000000008152600401610152906109e4565b60405180910390fd5b6000808860405161016c9190610981565b9081526020016040518091039020878154811061018c5761018b610a04565b5b906000526020600020906005020190508060000181600101826002018360030160009054906101000a900473ffffffffffffffffffffffffffffffffffffffff1684600401548480546101de90610a62565b80601f016020809104026020016040519081016040528092919081815260200182805461020a90610a62565b80156102575780601f1061022c57610100808354040283529160200191610257565b820191906000526020600020905b81548152906001019060200180831161023a57829003601f168201915b5050505050945083805461026a90610a62565b80601f016020809104026020016040519081016040528092919081815260200182805461029690610a62565b80156102e35780601f106102b8576101008083540402835291602001916102e3565b820191906000526020600020905b8154815290600101906020018083116102c657829003601f168201915b505050505093508280546102f690610a62565b80601f016020809104026020016040519081016040528092919081815260200182805461032290610a62565b801561036f5780601f106103445761010080835404028352916020019161036f565b820191906000526020600020905b81548152906001019060200180831161035257829003601f168201915b5050505050925095509550955095509550509295509295909350565b60006040518060a001604052808581526020018481526020018381526020013373ffffffffffffffffffffffffffffffffffffffff1681526020014281525090506000846040516103dc9190610981565b908152602001604051809103902081908060018154018082558091505060019003906000526020600020906005020160009091909190915060008201518160000190816104299190610c3f565b50602082015181600101908161043f9190610c3f565b5060408201518160020190816104559190610c3f565b5060608201518160030160006101000a81548173ffffffffffffffffffffffffffffffffffffffff021916908373ffffffffffffffffffffffffffffffffffffffff1602179055506080820151816004015550503373ffffffffffffffffffffffffffffffffffffffff16846040516104ce9190610981565b60405180910390207f513dac5cc1de2f8d2b13af22749d0dad96c19e647529b57081962d945ba6171785854260405161050993929190610d11565b60405180910390a350505050565b6000604051905090565b600080fd5b600080fd5b600080fd5b600080fd5b6000601f19601f8301169050919050565b7f4e487b7100000000000000000000000000000000000000000000000000000000600052604160045260246000fd5b61057e82610535565b810181811067ffffffffffffffff8211171561059d5761059c610546565b5b80604052505050565b60006105b0610517565b90506105bc8282610575565b919050565b600067ffffffffffffffff8211156105dc576105db610546565b5b6105e582610535565b9050602081019050919050565b82818337600083830152505050565b600061061461060f846105c1565b6105a6565b9050828152602081018484840111156106305761062f610530565b5b61063b8482856105f2565b509392505050565b600082601f8301126106585761065761052b565b5b8135610668848260208601610601565b91505092915050565b60006020828403121561068757610686610521565b5b600082013567ffffffffffffffff8111156106a5576106a4610526565b5b6106b184828501610643565b91505092915050565b6000819050919050565b6106cd816106ba565b82525050565b60006020820190506106e860008301846106c4565b92915050565b6106f7816106ba565b811461070257600080fd5b50565b600081359050610714816106ee565b92915050565b6000806040838503121561073157610730610521565b5b600083013567ffffffffffffffff81111561074f5761074e610526565b5b61075b85828601610643565b925050602061076c85828601610705565b9150509250929050565b600081519050919050565b600082825260208201905092915050565b60005b838110156107b0578082015181840152602081019050610795565b60008484015250505050565b60006107c782610776565b6107d18185610781565b93506107e1818560208601610792565b6107ea81610535565b840191505092915050565b600073ffffffffffffffffffffffffffffffffffffffff82169050919050565b6000610820826107f5565b9050919050565b61083081610815565b82525050565b600060a082019050818103600083015261085081886107bc565b9050818103602083015261086481876107bc565b9050818103604083015261087881866107bc565b90506108876060830185610827565b61089460808301846106c4565b9695505050505050565b6000806000606084860312156108b7576108b6610521565b5b600084013567ffffffffffffffff8111156108d5576108d4610526565b5b6108e186828701610643565b935050602084013567ffffffffffffffff81111561090257610901610526565b5b61090e86828701610643565b925050604084013567ffffffffffffffff81111561092f5761092e610526565b5b61093b86828701610643565b9150509250925092565b600081905092915050565b600061095b82610776565b6109658185610945565b9350610975818560208601610792565b80840191505092915050565b600061098d8284610950565b915081905092915050565b7f496e76616c696420696e64657800000000000000000000000000000000000000600082015250565b60006109ce600d83610781565b91506109d982610998565b602082019050919050565b600060208201905081810360008301526109fd816109c1565b9050919050565b7f4e487b7100000000000000000000000000000000000000000000000000000000600052603260045260246000fd5b7f4e487b7100000000000000000000000000000000000000000000000000000000600052602260045260246000fd5b60006002820490506001821680610a7a57607f821691505b602082108103610a8d57610a8c610a33565b5b50919050565b60008190508160005260206000209050919050565b60006020601f8301049050919050565b600082821b905092915050565b600060088302610af57fffffffffffffffffffffffffffffffffffffffffffffffffffffffffffffffff82610ab8565b610aff8683610ab8565b95508019841693508086168417925050509392505050565b6000819050919050565b6000610b3c610b37610b32846106ba565b610b17565b6106ba565b9050919050565b6000819050919050565b610b5683610b21565b610b6a610b6282610b43565b848454610ac5565b825550505050565b600090565b610b7f610b72565b610b8a818484610b4d565b505050565b5b81811015610bae57610ba3600082610b77565b600181019050610b90565b5050565b601f821115610bf357610bc481610a93565b610bcd84610aa8565b81016020851015610bdc578190505b610bf0610be885610aa8565b830182610b8f565b50505b505050565b600082821c905092915050565b6000610c1660001984600802610bf8565b1980831691505092915050565b6000610c2f8383610c05565b9150826002028217905092915050565b610c4882610776565b67ffffffffffffffff811115610c6157610c60610546565b5b610c6b8254610a62565b610c76828285610bb2565b600060209050601f831160018114610ca95760008415610c97578287015190505b610ca18582610c23565b865550610d09565b601f198416610cb786610a93565b60005b82811015610cdf57848901518255600182019150602085019450602081019050610cba565b86831015610cfc5784890151610cf8601f891682610c05565b8355505b6001600288020188555050505b505050505050565b60006060820190508181036000830152610d2b81866107bc565b90508181036020830152610d3f81856107bc565b9050610d4e60408301846106c4565b94935050505056fea26469706673582212208951432d109871fb9269c11c7d6635dcf27eda3f7797e9480f9b57e463208de864736f6c634300081c0033","opcodes":"PUSH1 0x80 PUSH1 0x40 MSTORE CALLVALUE DUP1 ISZERO PUSH1 0xF JUMPI PUSH1 0x0 DUP1 REVERT JUMPDEST POP PUSH2 0xD8C DUP1 PUSH2 0x1F PUSH1 0x0 CODECOPY PUSH1 0x0 RETURN INVALID PUSH1 0x80 PUSH1 0x40 MSTORE CALLVALUE DUP1 ISZERO PUSH2 0x10 JUMPI PUSH1 0x0 DUP1 REVERT JUMPDEST POP PUSH1 0x4 CALLDATASIZE LT PUSH2 0x41 JUMPI PUSH1 0x0 CALLDATALOAD PUSH1 0xE0 SHR DUP1 PUSH4 0x1B11F798 EQ PUSH2 0x46 JUMPI DUP1 PUSH4 0x70A92A9A EQ PUSH2 0x76 JUMPI DUP1 PUSH4 0x81985222 EQ PUSH2 0xAA JUMPI JUMPDEST PUSH1 0x0 DUP1 REVERT JUMPDEST PUSH2 0x60 PUSH1 0x4 DUP1 CALLDATASIZE SUB DUP2 ADD SWAP1 PUSH2 0x5B SWAP2 SWAP1 PUSH2 0x671 JUMP JUMPDEST PUSH2 0xC6 JUMP JUMPDEST PUSH1 0x40 MLOAD PUSH2 0x6D SWAP2 SWAP1 PUSH2 0x6D3 JUMP JUMPDEST PUSH1 0x40 MLOAD DUP1 SWAP2 SUB SWAP1 RETURN JUMPDEST PUSH2 0x90 PUSH1 0x4 DUP1 CALLDATASIZE SUB DUP2 ADD SWAP1 PUSH2 0x8B SWAP2 SWAP1 PUSH2 0x71A JUMP JUMPDEST PUSH2 0xF0 JUMP JUMPDEST PUSH1 0x40 MLOAD PUSH2 0xA1 SWAP6 SWAP5 SWAP4 SWAP3 SWAP2 SWAP1 PUSH2 0x836 JUMP JUMPDEST PUSH1 0x40 MLOAD DUP1 SWAP2 SUB SWAP1 RETURN JUMPDEST PUSH2 0xC4 PUSH1 0x4 DUP1 CALLDATASIZE SUB DUP2 ADD SWAP1 PUSH2 0xBF SWAP2 SWAP1 PUSH2 0x89E JUMP JUMPDEST PUSH2 0x38B JUMP JUMPDEST STOP JUMPDEST PUSH1 0x0 DUP1 DUP3 PUSH1 0x40 MLOAD PUSH2 0xD7 SWAP2 SWAP1 PUSH2 0x981 JUMP JUMPDEST SWAP1 DUP2 MSTORE PUSH1 0x20 ADD PUSH1 0x40 MLOAD DUP1 SWAP2 SUB SWAP1 KECCAK256 DUP1 SLOAD SWAP1 POP SWAP1 POP SWAP2 SWAP1 POP JUMP JUMPDEST PUSH1 0x60 DUP1 PUSH1 0x60 PUSH1 0x0 DUP1 PUSH1 0x0 DUP8 PUSH1 0x40 MLOAD PUSH2 0x108 SWAP2 SWAP1 PUSH2 0x981 JUMP JUMPDEST SWAP1 DUP2 MSTORE PUSH1 0x20 ADD PUSH1 0x40 MLOAD DUP1 SWAP2 SUB SWAP1 KECCAK256 DUP1 SLOAD SWAP1 POP DUP7 LT PUSH2 0x15B JUMPI PUSH1 0x40 MLOAD PUSH32 0x8C379A000000000000000000000000000000000000000000000000000000000 DUP2 MSTORE PUSH1 0x4 ADD PUSH2 0x152 SWAP1 PUSH2 0x9E4 JUMP JUMPDEST PUSH1 0x40 MLOAD DUP1 SWAP2 SUB SWAP1 REVERT JUMPDEST PUSH1 0x0 DUP1 DUP9 PUSH1 0x40 MLOAD PUSH2 0x16C SWAP2 SWAP1 PUSH2 0x981 JUMP JUMPDEST SWAP1 DUP2 MSTORE PUSH1 0x20 ADD PUSH1 0x40 MLOAD DUP1 SWAP2 SUB SWAP1 KECCAK256 DUP8 DUP2 SLOAD DUP2 LT PUSH2 0x18C JUMPI PUSH2 0x18B PUSH2 0xA04 JUMP JUMPDEST JUMPDEST SWAP1 PUSH1 0x0 MSTORE PUSH1 0x20 PUSH1 0x0 KECCAK256 SWAP1 PUSH1 0x5 MUL ADD SWAP1 POP DUP1 PUSH1 0x0 ADD DUP2 PUSH1 0x1 ADD DUP3 PUSH1 0x2 ADD DUP4 PUSH1 0x3 ADD PUSH1 0x0 SWAP1 SLOAD SWAP1 PUSH2 0x100 EXP SWAP1 DIV PUSH20 0xFFFFFFFFFFFFFFFFFFFFFFFFFFFFFFFFFFFFFFFF AND DUP5 PUSH1 0x4 ADD SLOAD DUP5 DUP1 SLOAD PUSH2 0x1DE SWAP1 PUSH2 0xA62 JUMP JUMPDEST DUP1 PUSH1 0x1F ADD PUSH1 0x20 DUP1 SWAP2 DIV MUL PUSH1 0x20 ADD PUSH1 0x40 MLOAD SWAP1 DUP2 ADD PUSH1 0x40 MSTORE DUP1 SWAP3 SWAP2 SWAP1 DUP2 DUP2 MSTORE PUSH1 0x20 ADD DUP3 DUP1 SLOAD PUSH2 0x20A SWAP1 PUSH2 0xA62 JUMP JUMPDEST DUP1 ISZERO PUSH2 0x257 JUMPI DUP1 PUSH1 0x1F LT PUSH2 0x22C JUMPI PUSH2 0x100 DUP1 DUP4 SLOAD DIV MUL DUP4 MSTORE SWAP2 PUSH1 0x20 ADD SWAP2 PUSH2 0x257 JUMP JUMPDEST DUP3 ADD SWAP2 SWAP1 PUSH1 0x0 MSTORE PUSH1 0x20 PUSH1 0x0 KECCAK256 SWAP1 JUMPDEST DUP2 SLOAD DUP2 MSTORE SWAP1 PUSH1 0x1 ADD SWAP1 PUSH1 0x20 ADD DUP1 DUP4 GT PUSH2 0x23A JUMPI DUP3 SWAP1 SUB PUSH1 0x1F AND DUP3 ADD SWAP2 JUMPDEST POP POP POP POP POP SWAP5 POP DUP4 DUP1 SLOAD PUSH2 0x26A SWAP1 PUSH2 0xA62 JUMP JUMPDEST DUP1 PUSH1 0x1F ADD PUSH1 0x20 DUP1 SWAP2 DIV MUL PUSH1 0x20 ADD PUSH1 0x40 MLOAD SWAP1 DUP2 ADD PUSH1 0x40 MSTORE DUP1 SWAP3 SWAP2 SWAP1 DUP2 DUP2 MSTORE PUSH1 0x20 ADD DUP3 DUP1 SLOAD PUSH2 0x296 SWAP1 PUSH2 0xA62 JUMP JUMPDEST DUP1 ISZERO PUSH2 0x2E3 JUMPI DUP1 PUSH1 0x1F LT PUSH2 0x2B8 JUMPI PUSH2 0x100 DUP1 DUP4 SLOAD DIV MUL DUP4 MSTORE SWAP2 PUSH1 0x20 ADD SWAP2 PUSH2 0x2E3 JUMP JUMPDEST DUP3 ADD SWAP2 SWAP1 PUSH1 0x0 MSTORE PUSH1 0x20 PUSH1 0x0 KECCAK256 SWAP1 JUMPDEST DUP2 SLOAD DUP2 MSTORE SWAP1 PUSH1 0x1 ADD SWAP1 PUSH1 0x20 ADD DUP1 DUP4 GT PUSH2 0x2C6 JUMPI DUP3 SWAP1 SUB PUSH1 0x1F AND DUP3 ADD SWAP2 JUMPDEST POP POP POP POP POP SWAP4 POP DUP3 DUP1 SLOAD PUSH2 0x2F6 SWAP1 PUSH2 0xA62 JUMP JUMPDEST DUP1 PUSH1 0x1F ADD PUSH1 0x20 DUP1 SWAP2 DIV MUL PUSH1 0x20 ADD PUSH1 0x40 MLOAD SWAP1 DUP2 ADD PUSH1 0x40 MSTORE DUP1 SWAP3 SWAP2 SWAP1 DUP2 DUP2 MSTORE PUSH1 0x20 ADD DUP3 DUP1 SLOAD PUSH2 0x322 SWAP1 PUSH2 0xA62 JUMP JUMPDEST DUP1 ISZERO PUSH2 0x36F JUMPI DUP1 PUSH1 0x1F LT PUSH2 0x344 JUMPI PUSH2 0x100 DUP1 DUP4 SLOAD DIV MUL DUP4 MSTORE SWAP2 PUSH1 0x20 ADD SWAP2 PUSH2 0x36F JUMP JUMPDEST DUP3 ADD SWAP2 SWAP1 PUSH1 0x0 MSTORE PUSH1 0x20 PUSH1 0x0 KECCAK256 SWAP1 JUMPDEST DUP2 SLOAD DUP2 MSTORE SWAP1 PUSH1 0x1 ADD SWAP1 PUSH1 0x20 ADD DUP1 DUP4 GT PUSH2 0x352 JUMPI DUP3 SWAP1 SUB PUSH1 0x1F AND DUP3 ADD SWAP2 JUMPDEST POP POP POP POP POP SWAP3 POP SWAP6 POP SWAP6 POP SWAP6 POP SWAP6 POP SWAP6 POP POP SWAP3 SWAP6 POP SWAP3 SWAP6 SWAP1 SWAP4 POP JUMP JUMPDEST PUSH1 0x0 PUSH1 0x40 MLOAD DUP1 PUSH1 0xA0 ADD PUSH1 0x40 MSTORE DUP1 DUP6 DUP2 MSTORE PUSH1 0x20 ADD DUP5 DUP2 MSTORE PUSH1 0x20 ADD DUP4 DUP2 MSTORE PUSH1 0x20 ADD CALLER PUSH20 0xFFFFFFFFFFFFFFFFFFFFFFFFFFFFFFFFFFFFFFFF AND DUP2 MSTORE PUSH1 0x20 ADD TIMESTAMP DUP2 MSTORE POP SWAP1 POP PUSH1 0x0 DUP5 PUSH1 0x40 MLOAD PUSH2 0x3DC SWAP2 SWAP1 PUSH2 0x981 JUMP JUMPDEST SWAP1 DUP2 MSTORE PUSH1 0x20 ADD PUSH1 0x40 MLOAD DUP1 SWAP2 SUB SWAP1 KECCAK256 DUP2 SWAP1 DUP1 PUSH1 0x1 DUP2 SLOAD ADD DUP1 DUP3 SSTORE DUP1 SWAP2 POP POP PUSH1 0x1 SWAP1 SUB SWAP1 PUSH1 0x0 MSTORE PUSH1 0x20 PUSH1 0x0 KECCAK256 SWAP1 PUSH1 0x5 MUL ADD PUSH1 0x0 SWAP1 SWAP2 SWAP1 SWAP2 SWAP1 SWAP2 POP PUSH1 0x0 DUP3 ADD MLOAD DUP2 PUSH1 0x0 ADD SWAP1 DUP2 PUSH2 0x429 SWAP2 SWAP1 PUSH2 0xC3F JUMP JUMPDEST POP PUSH1 0x20 DUP3 ADD MLOAD DUP2 PUSH1 0x1 ADD SWAP1 DUP2 PUSH2 0x43F SWAP2 SWAP1 PUSH2 0xC3F JUMP JUMPDEST POP PUSH1 0x40 DUP3 ADD MLOAD DUP2 PUSH1 0x2 ADD SWAP1 DUP2 PUSH2 0x455 SWAP2 SWAP1 PUSH2 0xC3F JUMP JUMPDEST POP PUSH1 0x60 DUP3 ADD MLOAD DUP2 PUSH1 0x3 ADD PUSH1 0x0 PUSH2 0x100 EXP DUP2 SLOAD DUP2 PUSH20 0xFFFFFFFFFFFFFFFFFFFFFFFFFFFFFFFFFFFFFFFF MUL NOT AND SWAP1 DUP4 PUSH20 0xFFFFFFFFFFFFFFFFFFFFFFFFFFFFFFFFFFFFFFFF AND MUL OR SWAP1 SSTORE POP PUSH1 0x80 DUP3 ADD MLOAD DUP2 PUSH1 0x4 ADD SSTORE POP POP CALLER PUSH20 0xFFFFFFFFFFFFFFFFFFFFFFFFFFFFFFFFFFFFFFFF AND DUP5 PUSH1 0x40 MLOAD PUSH2 0x4CE SWAP2 SWAP1 PUSH2 0x981 JUMP JUMPDEST PUSH1 0x40 MLOAD DUP1 SWAP2 SUB SWAP1 KECCAK256 PUSH32 0x513DAC5CC1DE2F8D2B13AF22749D0DAD96C19E647529B57081962D945BA61717 DUP6 DUP6 TIMESTAMP PUSH1 0x40 MLOAD PUSH2 0x509 SWAP4 SWAP3 SWAP2 SWAP1 PUSH2 0xD11 JUMP JUMPDEST PUSH1 0x40 MLOAD DUP1 SWAP2 SUB SWAP1 LOG3 POP POP POP POP JUMP JUMPDEST PUSH1 0x0 PUSH1 0x40 MLOAD SWAP1 POP SWAP1 JUMP JUMPDEST PUSH1 0x0 DUP1 REVERT JUMPDEST PUSH1 0x0 DUP1 REVERT JUMPDEST PUSH1 0x0 DUP1 REVERT JUMPDEST PUSH1 0x0 DUP1 REVERT JUMPDEST PUSH1 0x0 PUSH1 0x1F NOT PUSH1 0x1F DUP4 ADD AND SWAP1 POP SWAP2 SWAP1 POP JUMP JUMPDEST PUSH32 0x4E487B7100000000000000000000000000000000000000000000000000000000 PUSH1 0x0 MSTORE PUSH1 0x41 PUSH1 0x4 MSTORE PUSH1 0x24 PUSH1 0x0 REVERT JUMPDEST PUSH2 0x57E DUP3 PUSH2 0x535 JUMP JUMPDEST DUP2 ADD DUP2 DUP2 LT PUSH8 0xFFFFFFFFFFFFFFFF DUP3 GT OR ISZERO PUSH2 0x59D JUMPI PUSH2 0x59C PUSH2 0x546 JUMP JUMPDEST JUMPDEST DUP1 PUSH1 0x40 MSTORE POP POP POP JUMP JUMPDEST PUSH1 0x0 PUSH2 0x5B0 PUSH2 0x517 JUMP JUMPDEST SWAP1 POP PUSH2 0x5BC DUP3 DUP3 PUSH2 0x575 JUMP JUMPDEST SWAP2 SWAP1 POP JUMP JUMPDEST PUSH1 0x0 PUSH8 0xFFFFFFFFFFFFFFFF DUP3 GT ISZERO PUSH2 0x5DC JUMPI PUSH2 0x5DB PUSH2 0x546 JUMP JUMPDEST JUMPDEST PUSH2 0x5E5 DUP3 PUSH2 0x535 JUMP JUMPDEST SWAP1 POP PUSH1 0x20 DUP2 ADD SWAP1 POP SWAP2 SWAP1 POP JUMP JUMPDEST DUP3 DUP2 DUP4 CALLDATACOPY PUSH1 0x0 DUP4 DUP4 ADD MSTORE POP POP POP JUMP JUMPDEST PUSH1 0x0 PUSH2 0x614 PUSH2 0x60F DUP5 PUSH2 0x5C1 JUMP JUMPDEST PUSH2 0x5A6 JUMP JUMPDEST SWAP1 POP DUP3 DUP2 MSTORE PUSH1 0x20 DUP2 ADD DUP5 DUP5 DUP5 ADD GT ISZERO PUSH2 0x630 JUMPI PUSH2 0x62F PUSH2 0x530 JUMP JUMPDEST JUMPDEST PUSH2 0x63B DUP5 DUP3 DUP6 PUSH2 0x5F2 JUMP JUMPDEST POP SWAP4 SWAP3 POP POP POP JUMP JUMPDEST PUSH1 0x0 DUP3 PUSH1 0x1F DUP4 ADD SLT PUSH2 0x658 JUMPI PUSH2 0x657 PUSH2 0x52B JUMP JUMPDEST JUMPDEST DUP2 CALLDATALOAD PUSH2 0x668 DUP5 DUP3 PUSH1 0x20 DUP7 ADD PUSH2 0x601 JUMP JUMPDEST SWAP2 POP POP SWAP3 SWAP2 POP POP JUMP JUMPDEST PUSH1 0x0 PUSH1 0x20 DUP3 DUP5 SUB SLT ISZERO PUSH2 0x687 JUMPI PUSH2 0x686 PUSH2 0x521 JUMP JUMPDEST JUMPDEST PUSH1 0x0 DUP3 ADD CALLDATALOAD PUSH8 0xFFFFFFFFFFFFFFFF DUP2 GT ISZERO PUSH2 0x6A5 JUMPI PUSH2 0x6A4 PUSH2 0x526 JUMP JUMPDEST JUMPDEST PUSH2 0x6B1 DUP5 DUP3 DUP6 ADD PUSH2 0x643 JUMP JUMPDEST SWAP2 POP POP SWAP3 SWAP2 POP POP JUMP JUMPDEST PUSH1 0x0 DUP2 SWAP1 POP SWAP2 SWAP1 POP JUMP JUMPDEST PUSH2 0x6CD DUP2 PUSH2 0x6BA JUMP JUMPDEST DUP3 MSTORE POP POP JUMP JUMPDEST PUSH1 0x0 PUSH1 0x20 DUP3 ADD SWAP1 POP PUSH2 0x6E8 PUSH1 0x0 DUP4 ADD DUP5 PUSH2 0x6C4 JUMP JUMPDEST SWAP3 SWAP2 POP POP JUMP JUMPDEST PUSH2 0x6F7 DUP2 PUSH2 0x6BA JUMP JUMPDEST DUP2 EQ PUSH2 0x702 JUMPI PUSH1 0x0 DUP1 REVERT JUMPDEST POP JUMP JUMPDEST PUSH1 0x0 DUP2 CALLDATALOAD SWAP1 POP PUSH2 0x714 DUP2 PUSH2 0x6EE JUMP JUMPDEST SWAP3 SWAP2 POP POP JUMP JUMPDEST PUSH1 0x0 DUP1 PUSH1 0x40 DUP4 DUP6 SUB SLT ISZERO PUSH2 0x731 JUMPI PUSH2 0x730 PUSH2 0x521 JUMP JUMPDEST JUMPDEST PUSH1 0x0 DUP4 ADD CALLDATALOAD PUSH8 0xFFFFFFFFFFFFFFFF DUP2 GT ISZERO PUSH2 0x74F JUMPI PUSH2 0x74E PUSH2 0x526 JUMP JUMPDEST JUMPDEST PUSH2 0x75B DUP6 DUP3 DUP7 ADD PUSH2 0x643 JUMP JUMPDEST SWAP3 POP POP PUSH1 0x20 PUSH2 0x76C DUP6 DUP3 DUP7 ADD PUSH2 0x705 JUMP JUMPDEST SWAP2 POP POP SWAP3 POP SWAP3 SWAP1 POP JUMP JUMPDEST PUSH1 0x0 DUP2 MLOAD SWAP1 POP SWAP2 SWAP1 POP JUMP JUMPDEST PUSH1 0x0 DUP3 DUP3 MSTORE PUSH1 0x20 DUP3 ADD SWAP1 POP SWAP3 SWAP2 POP POP JUMP JUMPDEST PUSH1 0x0 JUMPDEST DUP4 DUP2 LT ISZERO PUSH2 0x7B0 JUMPI DUP1 DUP3 ADD MLOAD DUP2 DUP5 ADD MSTORE PUSH1 0x20 DUP2 ADD SWAP1 POP PUSH2 0x795 JUMP JUMPDEST PUSH1 0x0 DUP5 DUP5 ADD MSTORE POP POP POP POP JUMP JUMPDEST PUSH1 0x0 PUSH2 0x7C7 DUP3 PUSH2 0x776 JUMP JUMPDEST PUSH2 0x7D1 DUP2 DUP6 PUSH2 0x781 JUMP JUMPDEST SWAP4 POP PUSH2 0x7E1 DUP2 DUP6 PUSH1 0x20 DUP7 ADD PUSH2 0x792 JUMP JUMPDEST PUSH2 0x7EA DUP2 PUSH2 0x535 JUMP JUMPDEST DUP5 ADD SWAP2 POP POP SWAP3 SWAP2 POP POP JUMP JUMPDEST PUSH1 0x0 PUSH20 0xFFFFFFFFFFFFFFFFFFFFFFFFFFFFFFFFFFFFFFFF DUP3 AND SWAP1 POP SWAP2 SWAP1 POP JUMP JUMPDEST PUSH1 0x0 PUSH2 0x820 DUP3 PUSH2 0x7F5 JUMP JUMPDEST SWAP1 POP SWAP2 SWAP1 POP JUMP JUMPDEST PUSH2 0x830 DUP2 PUSH2 0x815 JUMP JUMPDEST DUP3 MSTORE POP POP JUMP JUMPDEST PUSH1 0x0 PUSH1 0xA0 DUP3 ADD SWAP1 POP DUP2 DUP2 SUB PUSH1 0x0 DUP4 ADD MSTORE PUSH2 0x850 DUP2 DUP9 PUSH2 0x7BC JUMP JUMPDEST SWAP1 POP DUP2 DUP2 SUB PUSH1 0x20 DUP4 ADD MSTORE PUSH2 0x864 DUP2 DUP8 PUSH2 0x7BC JUMP JUMPDEST SWAP1 POP DUP2 DUP2 SUB PUSH1 0x40 DUP4 ADD MSTORE PUSH2 0x878 DUP2 DUP7 PUSH2 0x7BC JUMP JUMPDEST SWAP1 POP PUSH2 0x887 PUSH1 0x60 DUP4 ADD DUP6 PUSH2 0x827 JUMP JUMPDEST PUSH2 0x894 PUSH1 0x80 DUP4 ADD DUP5 PUSH2 0x6C4 JUMP JUMPDEST SWAP7 SWAP6 POP POP POP POP POP POP JUMP JUMPDEST PUSH1 0x0 DUP1 PUSH1 0x0 PUSH1 0x60 DUP5 DUP7 SUB SLT ISZERO PUSH2 0x8B7 JUMPI PUSH2 0x8B6 PUSH2 0x521 JUMP JUMPDEST JUMPDEST PUSH1 0x0 DUP5 ADD CALLDATALOAD PUSH8 0xFFFFFFFFFFFFFFFF DUP2 GT ISZERO PUSH2 0x8D5 JUMPI PUSH2 0x8D4 PUSH2 0x526 JUMP JUMPDEST JUMPDEST PUSH2 0x8E1 DUP7 DUP3 DUP8 ADD PUSH2 0x643 JUMP JUMPDEST SWAP4 POP POP PUSH1 0x20 DUP5 ADD CALLDATALOAD PUSH8 0xFFFFFFFFFFFFFFFF DUP2 GT ISZERO PUSH2 0x902 JUMPI PUSH2 0x901 PUSH2 0x526 JUMP JUMPDEST JUMPDEST PUSH2 0x90E DUP7 DUP3 DUP8 ADD PUSH2 0x643 JUMP JUMPDEST SWAP3 POP POP PUSH1 0x40 DUP5 ADD CALLDATALOAD PUSH8 0xFFFFFFFFFFFFFFFF DUP2 GT ISZERO PUSH2 0x92F JUMPI PUSH2 0x92E PUSH2 0x526 JUMP JUMPDEST JUMPDEST PUSH2 0x93B DUP7 DUP3 DUP8 ADD PUSH2 0x643 JUMP JUMPDEST SWAP2 POP POP SWAP3 POP SWAP3 POP SWAP3 JUMP JUMPDEST PUSH1 0x0 DUP2 SWAP1 POP SWAP3 SWAP2 POP POP JUMP JUMPDEST PUSH1 0x0 PUSH2 0x95B DUP3 PUSH2 0x776 JUMP JUMPDEST PUSH2 0x965 DUP2 DUP6 PUSH2 0x945 JUMP JUMPDEST SWAP4 POP PUSH2 0x975 DUP2 DUP6 PUSH1 0x20 DUP7 ADD PUSH2 0x792 JUMP JUMPDEST DUP1 DUP5 ADD SWAP2 POP POP SWAP3 SWAP2 POP POP JUMP JUMPDEST PUSH1 0x0 PUSH2 0x98D DUP3 DUP5 PUSH2 0x950 JUMP JUMPDEST SWAP2 POP DUP2 SWAP1 POP SWAP3 SWAP2 POP POP JUMP JUMPDEST PUSH32 0x496E76616C696420696E64657800000000000000000000000000000000000000 PUSH1 0x0 DUP3 ADD MSTORE POP JUMP JUMPDEST PUSH1 0x0 PUSH2 0x9CE PUSH1 0xD DUP4 PUSH2 0x781 JUMP JUMPDEST SWAP2 POP PUSH2 0x9D9 DUP3 PUSH2 0x998 JUMP JUMPDEST PUSH1 0x20 DUP3 ADD SWAP1 POP SWAP2 SWAP1 POP JUMP JUMPDEST PUSH1 0x0 PUSH1 0x20 DUP3 ADD SWAP1 POP DUP2 DUP2 SUB PUSH1 0x0 DUP4 ADD MSTORE PUSH2 0x9FD DUP2 PUSH2 0x9C1 JUMP JUMPDEST SWAP1 POP SWAP2 SWAP1 POP JUMP JUMPDEST PUSH32 0x4E487B7100000000000000000000000000000000000000000000000000000000 PUSH1 0x0 MSTORE PUSH1 0x32 PUSH1 0x4 MSTORE PUSH1 0x24 PUSH1 0x0 REVERT JUMPDEST PUSH32 0x4E487B7100000000000000000000000000000000000000000000000000000000 PUSH1 0x0 MSTORE PUSH1 0x22 PUSH1 0x4 MSTORE PUSH1 0x24 PUSH1 0x0 REVERT JUMPDEST PUSH1 0x0 PUSH1 0x2 DUP3 DIV SWAP1 POP PUSH1 0x1 DUP3 AND DUP1 PUSH2 0xA7A JUMPI PUSH1 0x7F DUP3 AND SWAP2 POP JUMPDEST PUSH1 0x20 DUP3 LT DUP2 SUB PUSH2 0xA8D JUMPI PUSH2 0xA8C PUSH2 0xA33 JUMP JUMPDEST JUMPDEST POP SWAP2 SWAP1 POP JUMP JUMPDEST PUSH1 0x0 DUP2 SWAP1 POP DUP2 PUSH1 0x0 MSTORE PUSH1 0x20 PUSH1 0x0 KECCAK256 SWAP1 POP SWAP2 SWAP1 POP JUMP JUMPDEST PUSH1 0x0 PUSH1 0x20 PUSH1 0x1F DUP4 ADD DIV SWAP1 POP SWAP2 SWAP1 POP JUMP JUMPDEST PUSH1 0x0 DUP3 DUP3 SHL SWAP1 POP SWAP3 SWAP2 POP POP JUMP JUMPDEST PUSH1 0x0 PUSH1 0x8 DUP4 MUL PUSH2 0xAF5 PUSH32 0xFFFFFFFFFFFFFFFFFFFFFFFFFFFFFFFFFFFFFFFFFFFFFFFFFFFFFFFFFFFFFFFF DUP3 PUSH2 0xAB8 JUMP JUMPDEST PUSH2 0xAFF DUP7 DUP4 PUSH2 0xAB8 JUMP JUMPDEST SWAP6 POP DUP1 NOT DUP5 AND SWAP4 POP DUP1 DUP7 AND DUP5 OR SWAP3 POP POP POP SWAP4 SWAP3 POP POP POP JUMP JUMPDEST PUSH1 0x0 DUP2 SWAP1 POP SWAP2 SWAP1 POP JUMP JUMPDEST PUSH1 0x0 PUSH2 0xB3C PUSH2 0xB37 PUSH2 0xB32 DUP5 PUSH2 0x6BA JUMP JUMPDEST PUSH2 0xB17 JUMP JUMPDEST PUSH2 0x6BA JUMP JUMPDEST SWAP1 POP SWAP2 SWAP1 POP JUMP JUMPDEST PUSH1 0x0 DUP2 SWAP1 POP SWAP2 SWAP1 POP JUMP JUMPDEST PUSH2 0xB56 DUP4 PUSH2 0xB21 JUMP JUMPDEST PUSH2 0xB6A PUSH2 0xB62 DUP3 PUSH2 0xB43 JUMP JUMPDEST DUP5 DUP5 SLOAD PUSH2 0xAC5 JUMP JUMPDEST DUP3 SSTORE POP POP POP POP JUMP JUMPDEST PUSH1 0x0 SWAP1 JUMP JUMPDEST PUSH2 0xB7F PUSH2 0xB72 JUMP JUMPDEST PUSH2 0xB8A DUP2 DUP5 DUP5 PUSH2 0xB4D JUMP JUMPDEST POP POP POP JUMP JUMPDEST JUMPDEST DUP2 DUP2 LT ISZERO PUSH2 0xBAE JUMPI PUSH2 0xBA3 PUSH1 0x0 DUP3 PUSH2 0xB77 JUMP JUMPDEST PUSH1 0x1 DUP2 ADD SWAP1 POP PUSH2 0xB90 JUMP JUMPDEST POP POP JUMP JUMPDEST PUSH1 0x1F DUP3 GT ISZERO PUSH2 0xBF3 JUMPI PUSH2 0xBC4 DUP2 PUSH2 0xA93 JUMP JUMPDEST PUSH2 0xBCD DUP5 PUSH2 0xAA8 JUMP JUMPDEST DUP2 ADD PUSH1 0x20 DUP6 LT ISZERO PUSH2 0xBDC JUMPI DUP2 SWAP1 POP JUMPDEST PUSH2 0xBF0 PUSH2 0xBE8 DUP6 PUSH2 0xAA8 JUMP JUMPDEST DUP4 ADD DUP3 PUSH2 0xB8F JUMP JUMPDEST POP POP JUMPDEST POP POP POP JUMP JUMPDEST PUSH1 0x0 DUP3 DUP3 SHR SWAP1 POP SWAP3 SWAP2 POP POP JUMP JUMPDEST PUSH1 0x0 PUSH2 0xC16 PUSH1 0x0 NOT DUP5 PUSH1 0x8 MUL PUSH2 0xBF8 JUMP JUMPDEST NOT DUP1 DUP4 AND SWAP2 POP POP SWAP3 SWAP2 POP POP JUMP JUMPDEST PUSH1 0x0 PUSH2 0xC2F DUP4 DUP4 PUSH2 0xC05 JUMP JUMPDEST SWAP2 POP DUP3 PUSH1 0x2 MUL DUP3 OR SWAP1 POP SWAP3 SWAP2 POP POP JUMP JUMPDEST PUSH2 0xC48 DUP3 PUSH2 0x776 JUMP JUMPDEST PUSH8 0xFFFFFFFFFFFFFFFF DUP2 GT ISZERO PUSH2 0xC61 JUMPI PUSH2 0xC60 PUSH2 0x546 JUMP JUMPDEST JUMPDEST PUSH2 0xC6B DUP3 SLOAD PUSH2 0xA62 JUMP JUMPDEST PUSH2 0xC76 DUP3 DUP3 DUP6 PUSH2 0xBB2 JUMP JUMPDEST PUSH1 0x0 PUSH1 0x20 SWAP1 POP PUSH1 0x1F DUP4 GT PUSH1 0x1 DUP2 EQ PUSH2 0xCA9 JUMPI PUSH1 0x0 DUP5 ISZERO PUSH2 0xC97 JUMPI DUP3 DUP8 ADD MLOAD SWAP1 POP JUMPDEST PUSH2 0xCA1 DUP6 DUP3 PUSH2 0xC23 JUMP JUMPDEST DUP7 SSTORE POP PUSH2 0xD09 JUMP JUMPDEST PUSH1 0x1F NOT DUP5 AND PUSH2 0xCB7 DUP7 PUSH2 0xA93 JUMP JUMPDEST PUSH1 0x0 JUMPDEST DUP3 DUP2 LT ISZERO PUSH2 0xCDF JUMPI DUP5 DUP10 ADD MLOAD DUP3 SSTORE PUSH1 0x1 DUP3 ADD SWAP2 POP PUSH1 0x20 DUP6 ADD SWAP5 POP PUSH1 0x20 DUP2 ADD SWAP1 POP PUSH2 0xCBA JUMP JUMPDEST DUP7 DUP4 LT ISZERO PUSH2 0xCFC JUMPI DUP5 DUP10 ADD MLOAD PUSH2 0xCF8 PUSH1 0x1F DUP10 AND DUP3 PUSH2 0xC05 JUMP JUMPDEST DUP4 SSTORE POP JUMPDEST PUSH1 0x1 PUSH1 0x2 DUP9 MUL ADD DUP9 SSTORE POP POP POP JUMPDEST POP POP POP POP POP POP JUMP JUMPDEST PUSH1 0x0 PUSH1 0x60 DUP3 ADD SWAP1 POP DUP2 DUP2 SUB PUSH1 0x0 DUP4 ADD MSTORE PUSH2 0xD2B DUP2 DUP7 PUSH2 0x7BC JUMP JUMPDEST SWAP1 POP DUP2 DUP2 SUB PUSH1 0x20 DUP4 ADD MSTORE PUSH2 0xD3F DUP2 DUP6 PUSH2 0x7BC JUMP JUMPDEST SWAP1 POP PUSH2 0xD4E PUSH1 0x40 DUP4 ADD DUP5 PUSH2 0x6C4 JUMP JUMPDEST SWAP5 SWAP4 POP POP POP POP JUMP INVALID LOG2 PUSH5 0x6970667358 0x22 SLT KECCAK256 DUP10 MLOAD NUMBER 0x2D LT SWAP9 PUSH18 0xFB9269C11C7D6635DCF27EDA3F7797E9480F SWAP12 JUMPI 0xE4 PUSH4 0x208DE864 PUSH20 0x6F6C634300081C00330000000000000000000000 "},"gasEstimates":{"creation":{"codeDepositCost":"693600","executionCost":"728","totalCost":"694328"},"external":{"getPackage(string,uint256)":"infinite","getPackageCount(string)":"infinite","publishPackage(string,string,string)":"infinite"}},"methodIdentifiers":{"getPackage(string,uint256)":"70a92a9a","getPackageCount(string)":"1b11f798","publishPackage(string,string,string)":"81985222"}},"storageLayout":{"storage":[{"astId":18,"contract":"contracts/ChainPack.sol:ChainPack","label":"packageVersions","offset":0,"slot":"0","type":"t_mapping(t_string_memory_ptr,t_array(t_struct(Package)12_storage)dyn_storage)"}],"types":{"t_address":{"encoding":"inplace","label":"address","numberOfBytes":"20"},"t_array(t_struct(Package)12_storage)dyn_storage":{"base":"t_struct(Package)12_storage","encoding":"dynamic_array","label":"struct ChainPack.Package[]","numberOfBytes":"32"},"t_mapping(t_string_memory_ptr,t_array(t_struct(Package)12_storage)dyn_storage)":{"encoding":"mapping","key":"t_string_memory_ptr","label":"mapping(string => struct ChainPack.Package[])","numberOfBytes":"32","value":"t_array(t_struct(Package)12_storage)dyn_storage"},"t_string_memory_ptr":{"encoding":"bytes","label":"string","numberOfBytes":"32"},"t_string_storage":{"encoding":"bytes","label":"string","numberOfBytes":"32"},"t_struct(Package)12_storage":{"encoding":"inplace","label":"struct ChainPack.Package","members":[{"astId":3,"contract":"contracts/ChainPack.sol:ChainPack","label":"name","offset":0,"slot":"0","type":"t_string_storage"},{"astId":5,"contract":"contracts/ChainPack.sol:ChainPack","label":"version","offset":0,"slot":"1","type":"t_string_storage"},{"astId":7,"contract":"contracts/ChainPack.sol:ChainPack","label":"ipfsHash","offset":0,"slot":"2","type":"t_string_storage"},{"astId":9,"contract":"contracts/ChainPack.sol:ChainPack","label":"author","offset":0,"slot":"3","type":"t_address"},{"astId":11,"contract":"contracts/ChainPack.sol:ChainPack","label":"timestamp","offset":0,"slot":"4","type":"t_uint256"}],"numberOfBytes":"160"},"t_uint256":{"encoding":"inplace","label":"uint256","numberOfBytes":"32"}}},"userdoc":{"kind":"user","methods":{},"version":1}}}}