{
  "_format": "hh-sol-artifact-1",
  "contractName": "ChainPack",
  "sourceName": "contracts/ChainPack.sol",
  "abi": [
    {
      "anonymous": false,
      "inputs": [
        {
          "indexed": false,
          "internalType": "string",
          "name": "name",
          "type": "string"
        },
        {
          "indexed": false,
          "internalType": "string",
          "name": "version",
          "type": "string"
        },
        {
          "indexed": false,
          "internalType": "string",
          "name": "ipfsHash",
          "type": "string"
        },
        {
          "indexed": true,
          "internalType": "address",
          "name": "author",
          "type": "address"
        }
      ],
      "name": "PackagePublished",
      "type": "event"
    },
    {
      "inputs": [
        {
          "internalType": "string",
          "name": "_name",
          "type": "string"
        },
        {
          "internalType": "uint256",
          "name": "index",
          "type": "uint256"
        }
      ],
      "name": "getPackage",
      "outputs": [
        {
          "internalType": "string",
          "name": "",
          "type": "string"
        },
        {
          "internalType": "string",
          "name": "",
          "type": "string"
        },
        {
          "internalType": "string",
          "name": "",
          "type": "string"
        },
        {
          "internalType": "address",
          "name": "",
          "type": "address"
        },
        {
          "internalType": "uint256",
          "name": "",
          "type": "uint256"
        }
      ],
      "stateMutability": "view",
      "type": "function"
    },
    {
      "inputs": [
        {
          "internalType": "string",
          "name": "",
          "type": "string"
        },
        {
          "internalType": "uint256",
          "name": "",
          "type": "uint256"
        }
      ],
      "name": "packages",
      "outputs": [
        {
          "internalType": "string",
          "name": "name",
          "type": "string"
        },
        {
          "internalType": "string",
          "name": "version",
          "type": "string"
        },
        {
          "internalType": "string",
          "name": "ipfsHash",
          "type": "string"
        },
        {
          "internalType": "address",
          "name": "author",
          "type": "address"
        },
        {
          "internalType": "uint256",
          "name": "timestamp",
          "type": "uint256"
        }
      ],
      "stateMutability": "view",
      "type": "function"
    },
    {
      "inputs": [
        {
          "internalType": "string",
          "name": "_name",
          "type": "string"
        },
        {
          "internalType": "string",
          "name": "_version",
          "type": "string"
        },
        {
          "internalType": "string",
          "name": "_ipfsHash",
          "type": "string"
        }
      ],
      "name": "publishPackage",
      "outputs": [],
      "stateMutability": "nonpayable",
      "type": "function"
    }
  ],
  "bytecode": "0x6080604052348015600f57600080fd5b50610ea58061001f6000396000f3fe608060405234801561001057600080fd5b50600436106100415760003560e01c806370a92a9a14610046578063819852221461007a578063f974ab0214610096575b600080fd5b610060600480360381019061005b9190610889565b6100ca565b6040516100719594939291906109b4565b60405180910390f35b610094600480360381019061008f9190610a1c565b610362565b005b6100b060048036038101906100ab9190610889565b6104d8565b6040516100c19594939291906109b4565b60405180910390f35b6060806060600080600080886040516100e39190610aff565b9081526020016040518091039020878154811061010357610102610b16565b5b90600052602060002090600502016040518060a001604052908160008201805461012c90610b74565b80601f016020809104026020016040519081016040528092919081815260200182805461015890610b74565b80156101a55780601f1061017a576101008083540402835291602001916101a5565b820191906000526020600020905b81548152906001019060200180831161018857829003601f168201915b505050505081526020016001820180546101be90610b74565b80601f01602080910402602001604051908101604052809291908181526020018280546101ea90610b74565b80156102375780601f1061020c57610100808354040283529160200191610237565b820191906000526020600020905b81548152906001019060200180831161021a57829003601f168201915b5050505050815260200160028201805461025090610b74565b80601f016020809104026020016040519081016040528092919081815260200182805461027c90610b74565b80156102c95780601f1061029e576101008083540402835291602001916102c9565b820191906000526020600020905b8154815290600101906020018083116102ac57829003601f168201915b505050505081526020016003820160009054906101000a900473ffffffffffffffffffffffffffffffffffffffff1673ffffffffffffffffffffffffffffffffffffffff1673ffffffffffffffffffffffffffffffffffffffff16815260200160048201548152505090508060000151816020015182604001518360600151846080015195509550955095509550509295509295909350565b60006040518060a001604052808581526020018481526020018381526020013373ffffffffffffffffffffffffffffffffffffffff1681526020014281525090506000846040516103b39190610aff565b908152602001604051809103902081908060018154018082558091505060019003906000526020600020906005020160009091909190915060008201518160000190816104009190610d51565b5060208201518160010190816104169190610d51565b50604082015181600201908161042c9190610d51565b5060608201518160030160006101000a81548173ffffffffffffffffffffffffffffffffffffffff021916908373ffffffffffffffffffffffffffffffffffffffff1602179055506080820151816004015550503373ffffffffffffffffffffffffffffffffffffffff167feaf63ebfb9cf5d5b4cd6c9d5c71a237c4782d1a8e367b8df2225495371502a5c8585856040516104ca93929190610e23565b60405180910390a250505050565b600082805160208101820180518482526020830160208501208183528095505050505050818154811061050a57600080fd5b90600052602060002090600502016000915091505080600001805461052e90610b74565b80601f016020809104026020016040519081016040528092919081815260200182805461055a90610b74565b80156105a75780601f1061057c576101008083540402835291602001916105a7565b820191906000526020600020905b81548152906001019060200180831161058a57829003601f168201915b5050505050908060010180546105bc90610b74565b80601f01602080910402602001604051908101604052809291908181526020018280546105e890610b74565b80156106355780601f1061060a57610100808354040283529160200191610635565b820191906000526020600020905b81548152906001019060200180831161061857829003601f168201915b50505050509080600201805461064a90610b74565b80601f016020809104026020016040519081016040528092919081815260200182805461067690610b74565b80156106c35780601f10610698576101008083540402835291602001916106c3565b820191906000526020600020905b8154815290600101906020018083116106a657829003601f168201915b5050505050908060030160009054906101000a900473ffffffffffffffffffffffffffffffffffffffff16908060040154905085565b6000604051905090565b600080fd5b600080fd5b600080fd5b600080fd5b6000601f19601f8301169050919050565b7f4e487b7100000000000000000000000000000000000000000000000000000000600052604160045260246000fd5b61076082610717565b810181811067ffffffffffffffff8211171561077f5761077e610728565b5b80604052505050565b60006107926106f9565b905061079e8282610757565b919050565b600067ffffffffffffffff8211156107be576107bd610728565b5b6107c782610717565b9050602081019050919050565b82818337600083830152505050565b60006107f66107f1846107a3565b610788565b90508281526020810184848401111561081257610811610712565b5b61081d8482856107d4565b509392505050565b600082601f83011261083a5761083961070d565b5b813561084a8482602086016107e3565b91505092915050565b6000819050919050565b61086681610853565b811461087157600080fd5b50565b6000813590506108838161085d565b92915050565b600080604083850312156108a05761089f610703565b5b600083013567ffffffffffffffff8111156108be576108bd610708565b5b6108ca85828601610825565b92505060206108db85828601610874565b9150509250929050565b600081519050919050565b600082825260208201905092915050565b60005b8381101561091f578082015181840152602081019050610904565b60008484015250505050565b6000610936826108e5565b61094081856108f0565b9350610950818560208601610901565b61095981610717565b840191505092915050565b600073ffffffffffffffffffffffffffffffffffffffff82169050919050565b600061098f82610964565b9050919050565b61099f81610984565b82525050565b6109ae81610853565b82525050565b600060a08201905081810360008301526109ce818861092b565b905081810360208301526109e2818761092b565b905081810360408301526109f6818661092b565b9050610a056060830185610996565b610a1260808301846109a5565b9695505050505050565b600080600060608486031215610a3557610a34610703565b5b600084013567ffffffffffffffff811115610a5357610a52610708565b5b610a5f86828701610825565b935050602084013567ffffffffffffffff811115610a8057610a7f610708565b5b610a8c86828701610825565b925050604084013567ffffffffffffffff811115610aad57610aac610708565b5b610ab986828701610825565b9150509250925092565b600081905092915050565b6000610ad9826108e5565b610ae38185610ac3565b9350610af3818560208601610901565b80840191505092915050565b6000610b0b8284610ace565b915081905092915050565b7f4e487b7100000000000000000000000000000000000000000000000000000000600052603260045260246000fd5b7f4e487b7100000000000000000000000000000000000000000000000000000000600052602260045260246000fd5b60006002820490506001821680610b8c57607f821691505b602082108103610b9f57610b9e610b45565b5b50919050565b60008190508160005260206000209050919050565b60006020601f8301049050919050565b600082821b905092915050565b600060088302610c077fffffffffffffffffffffffffffffffffffffffffffffffffffffffffffffffff82610bca565b610c118683610bca565b95508019841693508086168417925050509392505050565b6000819050919050565b6000610c4e610c49610c4484610853565b610c29565b610853565b9050919050565b6000819050919050565b610c6883610c33565b610c7c610c7482610c55565b848454610bd7565b825550505050565b600090565b610c91610c84565b610c9c818484610c5f565b505050565b5b81811015610cc057610cb5600082610c89565b600181019050610ca2565b5050565b601f821115610d0557610cd681610ba5565b610cdf84610bba565b81016020851015610cee578190505b610d02610cfa85610bba565b830182610ca1565b50505b505050565b600082821c905092915050565b6000610d2860001984600802610d0a565b1980831691505092915050565b6000610d418383610d17565b9150826002028217905092915050565b610d5a826108e5565b67ffffffffffffffff811115610d7357610d72610728565b5b610d7d8254610b74565b610d88828285610cc4565b600060209050601f831160018114610dbb5760008415610da9578287015190505b610db38582610d35565b865550610e1b565b601f198416610dc986610ba5565b60005b82811015610df157848901518255600182019150602085019450602081019050610dcc565b86831015610e0e5784890151610e0a601f891682610d17565b8355505b6001600288020188555050505b505050505050565b60006060820190508181036000830152610e3d818661092b565b90508181036020830152610e51818561092b565b90508181036040830152610e65818461092b565b905094935050505056fea26469706673582212207022e648ab9d11645a02f0517c0833c120d36446596bf83f95b320f34a62d88d64736f6c634300081c0033",
  "linkReferences": {},
  "deployedLinkReferences": {}
}