{
  "_format": "hh-sol-artifact-1",
  "contractName": "ChainPack",
  "sourceName": "contracts/ChainPack.sol",
  "abi": [
    {
      "anonymous": false,
      "inputs": [
        {
          "indexed": true,
          "internalType": "string",
          "name": "name",
          "type": "string"
        },
        {
          "indexed": false,
          "internalType": "string",
          "name": "version",
          "type": "string"
        },
        {
          "indexed": false,
          "internalType": "string",
          "name": "ipfsHash",
          "type": "string"
        },
        {
          "indexed": true,
          "internalType": "address",
          "name": "author",
          "type": "address"
        },
        {
          "indexed": false,
          "internalType": "uint256",
          "name": "timestamp",
          "type": "uint256"
        }
      ],
      "name": "PackagePublished",
      "type": "event"
    },
    {
      "inputs": [
        {
          "internalType": "string",
          "name": "_name",
          "type": "string"
        },
        {
          "internalType": "uint256",
          "name": "index",
          "type": "uint256"
        }
      ],
      "name": "getPackage",
      "outputs": [
        {
          "internalType": "string",
          "name": "name",
          "type": "string"
        },
        {
          "internalType": "string",
          "name": "version",
          "type": "string"
        },
        {
          "internalType": "string",
          "name": "ipfsHash",
          "type": "string"
        },
        {
          "internalType": "address",
          "name": "author",
          "type": "address"
        },
        {
          "internalType": "uint256",
          "name": "timestamp",
          "type": "uint256"
        }
      ],
      "stateMutability": "view",
      "type": "function"
    },
    {
      "inputs": [
        {
          "internalType": "string",
          "name": "_name",
          "type": "string"
        }
      ],
      "name": "getPackageCount",
      "outputs": [
        {
          "internalType": "uint256",
          "name": "",
          "type": "uint256"
        }
      ],
      "stateMutability": "view",
      "type": "function"
    },
    {
      "inputs": [
        {
          "internalType": "string",
          "name": "_name",
          "type": "string"
        },
        {
          "internalType": "string",
          "name": "_version",
          "type": "string"
        },
        {
          "internalType": "string",
          "name": "_ipfsHash",
          "type": "string"
        }
      ],
      "name": "publishPackage",
      "outputs": [],
      "stateMutability": "nonpayable",
      "type": "function"
    }
  ],
  "bytecode": "0x6080604052348015600f57600080fd5b50610d8c8061001f6000396000f3fe608060405234801561001057600080fd5b50600436106100415760003560e01c80631b11f7981461004657806370a92a9a1461007657806381985222146100aa575b600080fd5b610060600480360381019061005b9190610671565b6100c6565b60405161006d91906106d3565b60405180910390f35b610090600480360381019061008b919061071a565b6100f0565b6040516100a1959493929190610836565b60405180910390f35b6100c460048036038101906100bf919061089e565b61038b565b005b600080826040516100d79190610981565b9081526020016040518091039020805490509050919050565b60608060606000806000876040516101089190610981565b908152602001604051809103902080549050861061015b576040517f08c379a0000000000000000000000000000000000000000000000000000000008152600401610152906109e4565b60405180910390fd5b6000808860405161016c9190610981565b9081526020016040518091039020878154811061018c5761018b610a04565b5b906000526020600020906005020190508060000181600101826002018360030160009054906101000a900473ffffffffffffffffffffffffffffffffffffffff1684600401548480546101de90610a62565b80601f016020809104026020016040519081016040528092919081815260200182805461020a90610a62565b80156102575780601f1061022c57610100808354040283529160200191610257565b820191906000526020600020905b81548152906001019060200180831161023a57829003601f168201915b5050505050945083805461026a90610a62565b80601f016020809104026020016040519081016040528092919081815260200182805461029690610a62565b80156102e35780601f106102b8576101008083540402835291602001916102e3565b820191906000526020600020905b8154815290600101906020018083116102c657829003601f168201915b505050505093508280546102f690610a62565b80601f016020809104026020016040519081016040528092919081815260200182805461032290610a62565b801561036f5780601f106103445761010080835404028352916020019161036f565b820191906000526020600020905b81548152906001019060200180831161035257829003601f168201915b5050505050925095509550955095509550509295509295909350565b60006040518060a001604052808581526020018481526020018381526020013373ffffffffffffffffffffffffffffffffffffffff1681526020014281525090506000846040516103dc9190610981565b908152602001604051809103902081908060018154018082558091505060019003906000526020600020906005020160009091909190915060008201518160000190816104299190610c3f565b50602082015181600101908161043f9190610c3f565b5060408201518160020190816104559190610c3f565b5060608201518160030160006101000a81548173ffffffffffffffffffffffffffffffffffffffff021916908373ffffffffffffffffffffffffffffffffffffffff1602179055506080820151816004015550503373ffffffffffffffffffffffffffffffffffffffff16846040516104ce9190610981565b60405180910390207f513dac5cc1de2f8d2b13af22749d0dad96c19e647529b57081962d945ba6171785854260405161050993929190610d11565b60405180910390a350505050565b6000604051905090565b600080fd5b600080fd5b600080fd5b600080fd5b6000601f19601f8301169050919050565b7f4e487b7100000000000000000000000000000000000000000000000000000000600052604160045260246000fd5b61057e82610535565b810181811067ffffffffffffffff8211171561059d5761059c610546565b5b80604052505050565b60006105b0610517565b90506105bc8282610575565b919050565b600067ffffffffffffffff8211156105dc576105db610546565b5b6105e582610535565b9050602081019050919050565b82818337600083830152505050565b600061061461060f846105c1565b6105a6565b9050828152602081018484840111156106305761062f610530565b5b61063b8482856105f2565b509392505050565b600082601f8301126106585761065761052b565b5b8135610668848260208601610601565b91505092915050565b60006020828403121561068757610686610521565b5b600082013567ffffffffffffffff8111156106a5576106a4610526565b5b6106b184828501610643565b91505092915050565b6000819050919050565b6106cd816106ba565b82525050565b60006020820190506106e860008301846106c4565b92915050565b6106f7816106ba565b811461070257600080fd5b50565b600081359050610714816106ee565b92915050565b6000806040838503121561073157610730610521565b5b600083013567ffffffffffffffff81111561074f5761074e610526565b5b61075b85828601610643565b925050602061076c85828601610705565b9150509250929050565b600081519050919050565b600082825260208201905092915050565b60005b838110156107b0578082015181840152602081019050610795565b60008484015250505050565b60006107c782610776565b6107d18185610781565b93506107e1818560208601610792565b6107ea81610535565b840191505092915050565b600073ffffffffffffffffffffffffffffffffffffffff82169050919050565b6000610820826107f5565b9050919050565b61083081610815565b82525050565b600060a082019050818103600083015261085081886107bc565b9050818103602083015261086481876107bc565b9050818103604083015261087881866107bc565b90506108876060830185610827565b61089460808301846106c4565b9695505050505050565b6000806000606084860312156108b7576108b6610521565b5b600084013567ffffffffffffffff8111156108d5576108d4610526565b5b6108e186828701610643565b935050602084013567ffffffffffffffff81111561090257610901610526565b5b61090e86828701610643565b925050604084013567ffffffffffffffff81111561092f5761092e610526565b5b61093b86828701610643565b9150509250925092565b600081905092915050565b600061095b82610776565b6109658185610945565b9350610975818560208601610792565b80840191505092915050565b600061098d8284610950565b915081905092915050565b7f496e76616c696420696e64657800000000000000000000000000000000000000600082015250565b60006109ce600d83610781565b91506109d982610998565b602082019050919050565b600060208201905081810360008301526109fd816109c1565b9050919050565b7f4e487b7100000000000000000000000000000000000000000000000000000000600052603260045260246000fd5b7f4e487b7100000000000000000000000000000000000000000000000000000000600052602260045260246000fd5b60006002820490506001821680610a7a57607f821691505b602082108103610a8d57610a8c610a33565b5b50919050565b60008190508160005260206000209050919050565b60006020601f8301049050919050565b600082821b905092915050565b600060088302610af57fffffffffffffffffffffffffffffffffffffffffffffffffffffffffffffffff82610ab8565b610aff8683610ab8565b95508019841693508086168417925050509392505050565b6000819050919050565b6000610b3c610b37610b32846106ba565b610b17565b6106ba565b9050919050565b6000819050919050565b610b5683610b21565b610b6a610b6282610b43565b848454610ac5565b825550505050565b600090565b610b7f610b72565b610b8a818484610b4d565b505050565b5b81811015610bae57610ba3600082610b77565b600181019050610b90565b5050565b601f821115610bf357610bc481610a93565b610bcd84610aa8565b81016020851015610bdc578190505b610bf0610be885610aa8565b830182610b8f565b50505b505050565b600082821c905092915050565b6000610c1660001984600802610bf8565b1980831691505092915050565b6000610c2f8383610c05565b9150826002028217905092915050565b610c4882610776565b67ffffffffffffffff811115610c6157610c60610546565b5b610c6b8254610a62565b610c76828285610bb2565b600060209050601f831160018114610ca95760008415610c97578287015190505b610ca18582610c23565b865550610d09565b601f198416610cb786610a93565b60005b82811015610cdf57848901518255600182019150602085019450602081019050610cba565b86831015610cfc5784890151610cf8601f891682610c05565b8355505b6001600288020188555050505b505050505050565b60006060820190508181036000830152610d2b81866107bc565b90508181036020830152610d3f81856107bc565b9050610d4e60408301846106c4565b94935050505056fea26469706673582212208951432d109871fb9269c11c7d6635dcf27eda3f7797e9480f9b57e463208de864736f6c634300081c0033",
  "linkReferences": {},
  "deployedLinkReferences": {}
}